:090B4C00010204081020408000A1
:0D0B2E00010F0001100041001CFF010E002E
:100AB200EFC39403501AC2AF050E90001CE0FEEF84
:100AC200900B4C93FFEE4F90001CF0D50E02D2AF6C
:010AD2002201
:07007B00120AB21200262256
:100A9000EFC39403501BC2AF050E90001CE0FEEFA5
:100AA000900B4C93F4FFEE5F90001CF0D50E02D239
:020AB000AF2273
:10091A00C2AF050E90001BE0D394004003E014F030
:10092A0090001BE0701AF50EA3E0FFE4F510EF202B
:10093A00E00BEFC313FF0510E510B403F11209E849
:05094A00D50E02D2AF42
:01094F002285
:10002600C2AF050E90001BE07018A3E0FFE4F510C8
:10003600EF20E00BEFC313FF0510E510B403F11238
:070046000B3FD50E02D2AF03
:01004D002290
:10095000E4FD741D2DF582E43400F583E0601F741E
:100960001D2DF582E43400F583E014F0741D2DF59F
:1009700082E43400F583E07005AF05120AB20DED94
:03098000B403CFEE
:010983002251
:10060E00741D250FF582E43400F583EDF0EF24FE22
:10061E006022146043240260030206A9741D250F94
:10062E00F582E43400F583E4F0AF0F120A90120065
:10063E00267F0422C2AF050E741D250FF582E43409
:10064E0000F583E0600AAF0F120A9012002680E8D0
:10065E00D50E02D2AF7F0822C2AF050E741D250F34
:10066E00F582E43400F583E070037F0822AF0F12A9
:10067E000A90D50E02D2AF120026741D250FF582F8
:10068E00E43400F583E06010741D250FF582E43428
:10069E0000F583E4F07F04227F0822741D250FF5F8
:0B06AE0082E43400F583E4F07FFF22BB
:100A450048656C6C6F2120576F726C640D0A0054F9
:100A550061736B410D0A005461736B420D0A0054BA
:070A650061736B430D0A00F1
:100A6C00E58954F04401F589E4F58AF58CD28CD2F1
:100A7C00A9120A171209B77BFF7A0A7945120B1BC8
:040A8C0012074722E4
:10006600B2807D057F0212060E7BFF7A0A79541252
:050076000B1B80EC22D1
:100AF100B2817D0A7F0212060E7BFF7A0A795C12AF
:050B01000B1B80EC223B
:100B0600B2827D0F7F0212060E7BFF7A0A7964128B
:050B16000B1B80EC2226
:03000300020006F2
:0100060032C7
:03001300020007E1
:0100070032C6
:03005300020008A0
:0100080032C5
:03005B0002000997
:0100090032C4
:0300830002000A6E
:01000A0032C3
:03001B0002000ED2
:01000E0032BF
:0300630002000F89
:01000F0032BE
:090B5500FF0066FF0AF1FF0B0628
:030B3B00010DFFAA
:060B5E0043870180FB2229
:100747007F61AD078F08E4F50C900B559374019307
:10075700FA740293AE02AB050DA803F68D81EE087D
:10076700F67DFF1D78FFE4F67A0BEA7EFE1D18F68C
:100777008D0B1E1D18765E7C02AF051DA807E4F6DB
:10078700EC75F003A42455F582E4340BF583E49368
:10079700740193FA740293EAAE051DA806F674086D
:1007A7002CF8A605EC75F003A42455F582E4340B68
:1007B700F583E493740193FA740293AE051DA806BA
:0B07C700F6DCB6750E01D50E02D2AFB5
:0107D2002204
:03000B000208D018
:1008D000C2AFC0E0C0F0C083C082C0D075D000C03D
:1008E00000C001C002C003C004C005C006C007901C
:1008F000001BE004F0D2AF12095012091AD007D041
:1009000006D005D004D003D002D001D000D0D0D082
:0A09100082D083D0F0D0E0D2AF32E5
:10098400D00EE50FB403028022900B4C93550D70EA
:100994001AD007D006D005D004D003D002D001D09D
:1009A40000D0D0D082D083D0F0D0E0050ED50E0296
:0309B400D2AF229D
:0D0B3F00900B4CE50F93450DF50D0206B926
:1006B900C00EAA81A8810874092510F9E7FF7409F9
:1006C900250FF9E7F9E510D3950F4033EFC399FEEC
:1006D900E7F60809DEFA7409250FF9E7D39AFF1836
:1006E9008881E510C3950FFE600F7408250FF9EF97
:1006F900F404FF09EF27F7DEFA85100F020984E5F4
:1007090010650F6036E8C39FFE1819E6F7DEFA7424
:1007190009250FF9E7D39AFF74092510F9E7F5813F
:10072900E50FC39510600CFE74082510F909EF2731
:0E073900F7DEFA85100F15810209840209848B
:1009E8007403650F700F74EF2581F581743FC0E0C3
:1009F800740BC0E03274FC2581F581900B4CE50F37
:0F0A080093F4550DF50D74B9C0E07406C0E032DB
:10044A00EFD3940540037F012212026FFED3940377
:10045A0040037F0222EF7041EE700B9000011202FE
:10046A0088F45293529412026FB4010B9000011255
:10047A0002884293F4529412026FFEB4020A900068
:10048A000112028842934294EEB4030D90000112C5
:10049A000288FEF45293EE4294EF64017043120212
:1004AA006FFE700B900001120288F452915292EE84
:1004BA00B4010B9000011202884291F45292120286
:1004CA006FB4020A9000011202884291429212020B
:1004DA006FB4030D900001120288FEF45291EE42AD
:1004EA0092EF6402704312026FFE700B90000112C9
:1004FA000288F452955296EEB4010B900001120252
:10050A00884295F4529612026FB4020A90000112C0
:10051A0002884295429612026FB4030D90000112AE
:10052A000288FEF45295EE4296EF6403704312027B
:10053A006FFE700B900001120288F452B152B2EEB3
:10054A00B4010B90000112028842B1F452B21202B5
:10055A006FB4020A90000112028842B142B212023A
:10056A006FB4030D900001120288FEF452B1EE42FC
:10057A00B2EF6404704312026FFE700B9000011216
:10058A000288F452B352B4EEB4010B900001120285
:10059A008842B3F452B412026FB4020A90000112F4
:1005AA00028842B342B412026FB4030D90000112E2
:1005BA000288FEF452B3EE42B4EF640570431202AD
:1005CA006FFF700B900001120288F452C952CAEFF1
:1005DA00B4010B90000112028842C9F452CA1202F5
:1005EA006FB4020A90000112028842C942CA12027A
:1005FA006FB4030D900001120288FFF452C9EF4252
:04060A00CA7F002281
:0B00860090000DEBF0A3EAF0A3E9F0FE
:10009100EF6401600302026C90001404F0E4A3F029
:1000A100A3F0A3F0A3F0A3F0A3F0FF7F287839E435
:1000B100F608DFFCE4FF7F287811E4F608DFFC7F17
:1000C1002890000DE0FBA3E0FAA3E0F912026FD340
:1000D10094C040037F012290000A120288B40104F7
:1000E100D2BC8002C2BC12026FFFE598543F4FF5AB
:1000F10098EF64C06008EF644060030201E690007D
:10010100021203A77F007E607D547C001202F190F1
:1001110000101203D7E4FFFE7D01FC900010E0F80F
:10012100A3E0F9A3E0FAA3E0FBC312038340037F3A
:100131000222900010E0F8A3E0F9A3E0FAA3E0FBAB
:10014100C3E49BFFE49AFE740199FDE498FC9000DE
:10015100101203D790000DE0FBA3E0FAA3E0F990A1
:100161000001120288FB6401703BC28E538EFE5364
:1001710089BF5389CF438E40900010E0FCA3E0FD7E
:10018100A3E0FEA3E0FF78081203948F8D90001086
:10019100E0A3E0A3E0A3E0F58BC2AB5389BF538F8B
:1001A100FDD28E8079EB64027038538EEF438E015D
:1001B100538EF7438E04900010E0FCA3E0FDA3E012
:1001C100FEA3E0FF78081203948FD6900010E0A3FD
:1001D100E0A3E0A3E0F5D753AFFB538EF7438E10B6
:1001E100803C7F022290000DE0FBA3E0FAA3E0F93E
:1001F10012026FFF7013900008120288B4010543C8
:100201008E20801A538EDF8015EFB4801190000884
:10021100120288B40105438780800353877F9000D1
:100221000DE0FBA3E0FAA3E0F9900009120288B403
:100231000104D2AC8002C2AC900007120288B40162
:1002410004D29C8002C29C90000B12028854C0FF11
:10025100E5A2543F4FF5A290000C120288B40105AB
:0D02610043971080035397EF7F00227F0327
:01026E00226D
:100AD300900016E02439F8A607E004F0C3942840F8
:0E0AE30002E4F0900017E0700404F0D29922B3
:100B1B0012026FFF600C120AD3740129F9E43AFA3E
:030B2B0080EE2237
:0300230002085F71
:10085F00C0E0C083C082C0D075D000C000C006C049
:10086F0007309824C29890001AE0701C900018E08E
:10087F00C394284002E4F0900018E0FF04F07411D4
:10088F002FF8A699A37405F0309927C299900016F6
:10089F00E0FF900015E0FE6F601374392EF8E6F557
:1008AF0099E004F0C394284009E4F0800590001704
:1008BF00E4F0D007D006D000D0D0D082D083D0E0E3
:0108CF0032F6
:1009B7009000007440F0A37402F0A31203E3000157
:1009C700C2009000077401F0E4A3F0A304F0E4A3CD
:1009D700F0A3F0A3F07B017A0079007F0112008673
:0109E70022ED
:100A170090000174FFF09000007403F07B017A00EE
:100A270079007F0112044A7B017A0079007F031263
:0D0A3700044A7B017A0079007F0512044A11
:010A4400228F
:030000000207D321
:0C07D300787FE4F6D8FD75816002081AFA
:10026F00BB010689828A83E0225002E722BBFE028D
:09027F00E32289828A83E49322C0
:10028800BB010CE58229F582E5833AF583E022502B
:1002980006E92582F8E622BBFE06E92582F8E22275
:0D02A800E58229F582E5833AF583E493228F
:1002B50075F008758200EF2FFFEE33FECD33CDCC00
:1002C50033CCC58233C5829BED9AEC99E582984083
:1002D5000CF582EE9BFEED9AFDEC99FC0FD5F0D660
:1002E500E4CEFBE4CDFAE4CCF9A88222B800C1B98A
:1002F5000059BA002DEC8BF084CFCECDFCE5F0CBC8
:10030500F97818EF2FFFEE33FEED33FDEC33FCEB00
:1003150033FB10D703994004EB99FB0FD8E5E4F9BB
:10032500FA227818EF2FFFEE33FEED33FDEC33FCA8
:10033500C933C910D7059BE99A4007EC9BFCE99A9C
:10034500F90FD8E0E4C9FAE4CCFB2275F010EF2FE1
:10035500FFEE33FEED33FDCC33CCC833C810D707E1
:100365009BEC9AE899400AED9BFDEC9AFCE899F81C
:0E0375000FD5F0DAE4CDFBE4CCFAE4C8F922AF
:10038300EB9FF5F0EA9E42F0E99D42F0E89C45F0D0
:010393002247
:10039400E8600FECC313FCED13FDEE13FEEF13FF47
:0303A400D8F1226B
:1003A700BB010DE58229F582E5833AF58302042135
:1003B7005007E92582F8020414BBFE07E92582F8F5
:1003C70002042DE58229F582E5833AF58302043A92
:0C03D700ECF0A3EDF0A3EEF0A3EFF02299
:1003E300A8828583F0D083D0821203FA1203FA1213
:1003F30003FA1203FAE473E493A3C583C5F0C58338
:10040300C8C582C8F0A3C583C5F0C583C8C582C863
:0104130022C6
:1007DF00020A6CE493A3F8E493A34003F68001F2BA
:1007EF0008DFF48029E493A3F85407240CC8C3331B
:1007FF00C4540F4420C8834004F456800146F6DFEA
:10080F00E4800B0102040810204080900B2EE47E40
:10081F00019360BCA3FF543F30E509541FFEE493DE
:10082F00A360010ECF54C025E060A840B8E493A3A5
:10083F00FAE493A3F8E493A3C8C582C8CAC583CAD0
:10084F00F0A3C8C582C8CAC583CADFE9DEE780BE88
:010B3E0000B6
:0D041400E6FB08E6F908E6FA08E6CBF82258
:0C042100E0F8A3E0F9A3E0FAA3E0FB225E
:0D042D00E2FB08E2F908E2FA08E2CBF8224F
:10043A00E493F8740193F9740293FA740393FB2218
:00000001FF
