:0909F900010204081020408000F6
:0C09DC00011F00012300011DFF011E008F
:10098800EFC394035010C2AF051EEF9009F99342CC
:070998001DD51E02D2AF22A3
:070003001209881208F02227
:10097000EFC394035011C2AF051EEF9009F993F431
:08098000521DD51E02D2AF2268
:10081700C2AF051EE51CD394004002151CE51C70F1
:1008270018F51EAF1DF523EF20E00BEFC313FF05EF
:0E08370023E523B403F1120846D51E02D2AF0A
:010845002290
:1008F000C2AF051EE51C7016AF1DF523EF20E00BFF
:10090000EFC313FF0523E523B403F11209ECD51E51
:0309100002D2AF61
:0109130022C1
:10095500E4FE74202EF8E6600D1674202EF8E6707D
:0A09650005AF061209880EBE03E874
:01096F002265
:1006CD007420251FF8A605EF24FE6019146034244C
:1006DD0002705C7420251FF8E4F6AF1F120970122A
:1006ED0008F07F0422C2AF051E7420251FF8E660B6
:1006FD000AAF1F1209701208F080EED51E02D2AF9C
:10070D007F0822C2AF051E7420251FF8E670037FF7
:10071D000822AF1F120970D51E02D2AF1208F07455
:10072D0020251FF8E66005E4F67F04227F08227479
:09073D0020251FF8E4F67FFF22DD
:1008C90048656C6C6F2120576F726C640D0A005477
:1008D90061736B410D0A005461736B420D0A005438
:0708E90061736B430D0A006F
:10091400E58954F04401F589E4F58AF58CD28CD24A
:10092400A91208A11208757BFF7A0879C91209C9AE
:040934001205B522D1
:10000E00B2807D057F021206CD7BFF7A0879D81269
:05001E0009C980EC227D
:10099F00B2817D0A7F021206CD7BFF7A0879E012C1
:0509AF0009C980EC22E3
:1009B400B2827D0F7F021206CD7BFF7A0879E8129E
:0509C40009C980EC22CE
:090A0200FF000EFF099FFF09B47B
:0309E8000130FFDC
:060A0B0043870180FB227D
:1005B5007F81AD078F2BE4F52F900A029374019389
:1005C500FA740293AE02AB050DA803F68D81EE0811
:1005D500F67DFF1D78FFE4F67A0AEA7EFE1D18F621
:1005E5008D2E1E1D18760B7C02AF051DA807E4F69F
:1005F500EC75F003A42402F582E4340AF583E49350
:10060500740193FA740293EAAE051DA806F6742BDD
:100615002CF8A605EC75F003A42402F582E4340A4F
:10062500F583E493740193FA740293AE051DA8064D
:0B063500F6DCB6751E01D51E02D2AF28
:010640002297
:03000B0002079E4B
:10079E00C2AFC0E0C0F0C083C082C0D075D000C070
:1007AE0000C001C002C003C004C005C006C00705DA
:1007BE001CD2AF120955120817D007D006D005D09B
:1007CE0004D003D002D001D000D0D0D082D083D0BC
:0607DE00F0D0E0D2AF32C2
:1007E400D01EE51FB4030280229009F9935530709E
:1007F4001AD007D006D005D004D003D002D001D03F
:1008040000D0D0D082D083D0F0D0E0051ED51E0217
:03081400D2AF223E
:0D09EC009009F9E51F934530F5300205270D
:10052700C01EAA81A88108742C2523F9E7FF742C23
:10053700251FF9E7F9E523D3951F4033EFC399FE4C
:10054700E7F60809DEFA742C251FF9E7D39AFF1896
:100557008881E523C3951FFE600F742B251FF9EFD4
:10056700F404FF09EF27F7DEFA85231F0207E4E506
:1005770023651F6036E8C39FFE1819E6F7DEFA7495
:100587002C251FF9E7D39AFF742C2523F9E7F5816A
:10059700E51FC39523600CFE742B2523F909EF276C
:0E05A700F7DEFA85231F15810207E40207E440
:100846007403651F700F74EF2581F58174ECC0E0A9
:100856007409C0E03274FC2581F5819009F9E51F21
:0F08660093F45530F5307427C0E07405C0E032CC
:10002600EFD3940540037F0122120389FED3940384
:1000360040037F0222EF7041EE700B900001120325
:10004600A2F452935294120389B4010B9000011248
:1000560003A24293F45294120389FEB4020A90005A
:10006600011203A242934294EEB4030D90000112D2
:1000760003A2FEF45293EE4294EF6401704312031E
:1000860089FE700B9000011203A2F452915292EE77
:10009600B4010B9000011203A24291F45292120392
:1000A60089B4020A9000011203A2429142921203FD
:1000B60089B4030D9000011203A2FEF45291EE42A0
:1000C60092EF64027043120389FE700B90000112D6
:1000D60003A2F452955296EEB4010B90000112035E
:1000E600A24295F45296120389B4020A90000112B4
:1000F60003A242954296120389B4030D90000112A1
:1001060003A2FEF45295EE4296EF64037043120387
:1001160089FE700B9000011203A2F452B152B2EEA6
:10012600B4010B9000011203A242B1F452B21203C1
:1001360089B4020A9000011203A242B142B212032C
:1001460089B4030D9000011203A2FEF452B1EE42EF
:10015600B2EF64047043120389FE700B9000011223
:1001660003A2F452B352B4EEB4010B900001120391
:10017600A242B3F452B4120389B4020A90000112E7
:1001860003A242B342B4120389B4030D90000112D4
:1001960003A2FEF452B3EE42B4EF640570431203B9
:1001A60089FF700B9000011203A2F452C952CAEFE4
:1001B600B4010B9000011203A242C9F452CA120301
:1001C60089B4020A9000011203A242C942CA12036C
:1001D60089B4030D9000011203A2FFF452C9EF4245
:0401E600CA7F0022AA
:0601EA008B158A1689172F
:1001F000EF64016003020386752401F525F526F5F9
:1002000027F528F529F52AFF7F287859E4F608DF35
:10021000FCE4FF7F287831E4F608DFFC7F28AB158B
:10022000AA16A917120389D394C040037F01229014
:10023000000A1203A2B40104D2BC8002C2BC1203A1
:1002400089FFE598543F4FF598EF64C06008EF646C
:1002500040600302030A9000021204C17F007E6026
:100260007D547C0012040B8F1B8E1A8D198C18E4A0
:10027000FFFE7D01FCAB1BAA1AA919A818C3120422
:100280009D40037F0222C3E4951BF51BE4951AF5FC
:100290001A74019519F519E49518F518AB15AA16F5
:1002A000A9179000011203A2FB6401702CC28E53A7
:1002B0008EFE5389BF5389CF438E40AF1BAE1AAD1C
:1002C00019AC1878081204AE8F8D851B8BC2AB5306
:1002D00089BF538FFDD28E8065EB64027029538EE7
:1002E000EF438E01538EF7438E04AF1BAE1AAD1948
:1002F000AC1878081204AE8FD6851BD753AFFB53CA
:100300008EF7438E1080377F0222AB15AA16A917ED
:10031000120389FF70139000081203A2B401054371
:100320008E20801A538EDF8015EFB4801190000864
:100330001203A2B40105438780800353877FAB1566
:10034000AA16A9179000091203A2B40104D2AC8026
:1003500002C2AC9000071203A2B40104D29C800236
:10036000C29C90000B1203A254C0FFE5A2543F4F61
:10037000F5A290000C1203A2B4010543971080036C
:080380005397EF7F00227F0379
:010388002252
:1009380074592526F8A6070526E526C394284003FA
:0D094800E4F526E5277005752701D29922F8
:1009C900120389FF600C120938740129F9E43AFA13
:0309D90080EE228B
:030023000207468B
:10074600C0E0C0D075D000C000C00730981DC29868
:10075600E52A7017E528C394284003752800AF28BA
:10076600052874312FF8A699752905309921C29963
:10077600E5256526601674592525F8E6F5990525BB
:10078600E525C3942840087525008003752700D009
:0807960007D000D0D0D0E03202
:10087500750840750902750D00750CC2750B01757B
:100885000A00750F01E4F510751101F512F513F560
:0B08950014FB7A0079087F011201EAD1
:0108A0002235
:1008A1007509FF7508037B007A0079087F01120042
:1008B100267B007A0079087F031200267B007A00EC
:0708C10079087F05120026F3
:0108C800220D
:03000000020641B4
:0C064100787FE4F6D8FD75818002068801
:10038900BB010689828A83E0225002E722BBFE0272
:09039900E32289828A83E49322A5
:1003A200BB010CE58229F582E5833AF583E0225010
:1003B20006E92582F8E622BBFE06E92582F8E2225A
:0D03C200E58229F582E5833AF583E4932274
:1003CF0075F008758200EF2FFFEE33FECD33CDCCE5
:1003DF0033CCC58233C5829BED9AEC99E582984068
:1003EF000CF582EE9BFEED9AFDEC99FC0FD5F0D645
:1003FF00E4CEFBE4CDFAE4CCF9A88222B800C1B96F
:10040F000059BA002DEC8BF084CFCECDFCE5F0CBAC
:10041F00F97818EF2FFFEE33FEED33FDEC33FCEBE5
:10042F0033FB10D703994004EB99FB0FD8E5E4F9A0
:10043F00FA227818EF2FFFEE33FEED33FDEC33FC8D
:10044F00C933C910D7059BE99A4007EC9BFCE99A81
:10045F00F90FD8E0E4C9FAE4CCFB2275F010EF2FC6
:10046F00FFEE33FEED33FDCC33CCC833C810D707C6
:10047F009BEC9AE899400AED9BFDEC9AFCE899F801
:0E048F000FD5F0DAE4CDFBE4CCFAE4C8F92294
:10049D00EB9FF5F0EA9E42F0E99D42F0E89C45F0B5
:0104AD00222C
:1004AE00E8600FECC313FCED13FDEE13FEEF13FF2C
:0304BE00D8F12250
:1004C100BB010DE58229F582E5833AF5830204FE3D
:1004D1005007E92582F80204F1BBFE07E92582F8FD
:1004E10002050AE58229F582E5833AF583020517BB
:10064D00020914E493A3F8E493A34003F68001F2A6
:10065D0008DFF48029E493A3F85407240CC8C333AE
:10066D00C4540F4420C8834004F456800146F6DF7D
:10067D00E4800B01020408102040809009DCE47E28
:10068D00019360BCA3FF543F30E509541FFEE49372
:10069D00A360010ECF54C025E060A840B8E493A339
:1006AD00FAE493A3F8E493A3C8C582C8CAC583CA64
:1006BD00F0A3C8C582C8CAC583CADFE9DEE780BE1C
:0109EB00000B
:0D04F100E6FB08E6F908E6FA08E6CBF8227B
:0C04FE00E0F8A3E0F9A3E0FAA3E0FB2281
:0D050A00E2FB08E2F908E2FA08E2CBF82271
:10051700E493F8740193F9740293FA740393FB223A
:00000001FF
