:0F05F9007DA57C06ED1D70011C144C70F7DFF121
:0106080022CF
:10002600EFD3940540037F01221201EAFED3940325
:1000360040037F0222EF7041EE700B900001120226
:1000460003F4529352941201EAB4010B9000011288
:1000560002034293F452941201EAFEB4020A90009B
:100066000112020342934294EEB4030D9000011272
:100076000203FEF45293EE4294EF640170431201C0
:10008600EAFE700B900001120203F452915292EEB6
:10009600B4010B9000011202034291F45292120134
:1000A600EAB4020A9000011202034291429212013E
:1000B600EAB4030D900001120203FEF45291EE42DF
:1000C60092EF640270431201EAFE700B9000011277
:1000D6000203F452955296EEB4010B9000011202FF
:1000E600034295F452961201EAB4020A90000112F4
:1000F6000203429542961201EAB4030D90000112E2
:100106000203FEF45295EE4296EF64037043120129
:10011600EAFE700B900001120203F452B152B2EEE5
:10012600B4010B90000112020342B1F452B2120163
:10013600EAB4020A90000112020342B142B212016D
:10014600EAB4030D900001120203FEF452B1EE422E
:10015600B2EF640470431201EAFE700B90000112C4
:100166000203F452B352B4EEB4010B900001120232
:100176000342B3F452B41201EAB4020A9000011227
:10018600020342B342B41201EAB4030D9000011215
:100196000203FEF452B3EE42B4EF6405704312015B
:1001A600EAFF700B900001120203F452C952CAEF23
:1001B600B4010B90000112020342C9F452CA1201A3
:1001C600EAB4020A90000112020342C942CA1201AD
:1001D600EAB4030D900001120203FFF452C9EF4284
:0401E600CA7F0022AA
:060388008B158A1689178F
:10038E00EF6401600302051F751C01F51DF51EF5D6
:10039E001FF520F521F5227F28784BE4F608DFFCC7
:1003AE007F287823E4F608DFFCAB15AA16A91712EE
:1003BE0001EAD394C040037F012290000A12020387
:1003CE00B40104D2BC8002C2BC1201EAFFE598540B
:1003DE003F4FF598EF64C06008EF6440600302047D
:1003EE00A39000021203227F007E607D547C0012D7
:1003FE00026C8F1B8E1A8D198C18E4FFFE7D01FC8A
:10040E00AB1BAA1AA919A818C31202FE40037F0239
:10041E0022C3E4951BF51BE4951AF51A7401951980
:10042E00F519E49518F518AB15AA16A91790000141
:10043E00120203FB6401702CC28E538EFE5389BFD1
:10044E005389CF438E40AF1BAE1AAD19AC18780846
:10045E0012030F8F8D851B8BC2AB5389BF538FFD3C
:10046E00D28E8065EB64027029538EEF438E01535A
:10047E008EF7438E04AF1BAE1AAD19AC1878081266
:10048E00030F8FD6851BD753AFFB538EF7438E10BA
:10049E0080377F0222AB15AA16A9171201EAFF7048
:1004AE0013900008120203B40105438E20801A53E4
:1004BE008EDF8015EFB48011900008120203B40194
:1004CE0005438780800353877FAB15AA16A9179023
:1004DE000009120203B40104D2AC8002C2AC900037
:1004EE0007120203B40104D29C8002C29C90000B3E
:1004FE0012020354C0FFE5A2543F4FF5A290000C28
:10050E00120203B4010543971080035397EF7F0047
:03051E00227F0336
:0105210022B7
:10000300744B251EF8A607051EE51EC3942840035E
:0D001300E4F51EE51F7005751F01D299224E
:1005E6001201EAFF600C120003740129F9E43AFAD9
:0305F60080EE2272
:03002300020522B1
:10052200C0E0C0D075D000C000C00730981DC2988E
:10053200E5227017E520C394284003752000AF2000
:10054200052074232FF8A699752105309921C299A7
:10055200E51D651E6016744B251DF8E6F599051D0F
:10056200E51DC394284008751D008003751F00D047
:0805720007D000D0D0D0E03228
:0B061500746573742E2E2E2E0D0A004B
:1005CC001205A512057AD2AF7BFF7A0679151205B2
:0A05DC00E6B2B07FF41205F980EEDC
:10057A00750840750902750D00750CC2750B017579
:10058A000A00750F01E4F510751101F512F513F55E
:0B059A0014FB7A0079087F010203883F
:1005A5007509FF7508037B007A0079087F01120041
:1005B500267B007A0079087F031200267B007A00EB
:0705C50079087F0502002602
:03000000020609EC
:0C060900787FE4F6D8FD7581720205CC04
:1001EA00BB010689828A83E0225002E722BBFE0213
:0901FA00E32289828A83E4932246
:10020300BB010CE58229F582E5833AF583E02250B0
:1002130006E92582F8E622BBFE06E92582F8E222FA
:0D022300E58229F582E5833AF583E4932214
:1002300075F008758200EF2FFFEE33FECD33CDCC85
:1002400033CCC58233C5829BED9AEC99E582984008
:100250000CF582EE9BFEED9AFDEC99FC0FD5F0D6E5
:10026000E4CEFBE4CDFAE4CCF9A88222B800C1B90F
:100270000059BA002DEC8BF084CFCECDFCE5F0CB4D
:10028000F97818EF2FFFEE33FEED33FDEC33FCEB86
:1002900033FB10D703994004EB99FB0FD8E5E4F941
:1002A000FA227818EF2FFFEE33FEED33FDEC33FC2E
:1002B000C933C910D7059BE99A4007EC9BFCE99A22
:1002C000F90FD8E0E4C9FAE4CCFB2275F010EF2F67
:1002D000FFEE33FEED33FDCC33CCC833C810D70767
:1002E0009BEC9AE899400AED9BFDEC9AFCE899F8A2
:0E02F0000FD5F0DAE4CDFBE4CCFAE4C8F92235
:1002FE00EB9FF5F0EA9E42F0E99D42F0E89C45F056
:01030E0022CC
:10030F00E8600FECC313FCED13FDEE13FEEF13FFCC
:03031F00D8F122F0
:10032200BB010DE58229F582E5833AF58302035F7D
:100332005007E92582F8020352BBFE07E92582F83D
:1003420002036BE58229F582E5833AF5830203789D
:0D035200E6FB08E6F908E6FA08E6CBF8221B
:0C035F00E0F8A3E0F9A3E0FAA3E0FB2221
:0D036B00E2FB08E2F908E2FA08E2CBF82212
:10037800E493F8740193F9740293FA740393FB22DB
:00000001FF
