:0F062E007DA57C06ED1D70011C144C70F7DFF1EB
:01063D00229A
:10008600EFD3940540037F012212024AFED3940364
:1000960040037F0222EF7041EE700B9000011202C6
:1000A60063F45293529412024AB4010B9000011267
:1000B60002634293F4529412024AFEB4020A90007A
:1000C6000112026342934294EEB4030D90000112B2
:1000D6000263FEF45293EE4294EF640170431202FF
:1000E6004AFE700B900001120263F452915292EE96
:1000F600B4010B9000011202634291F45292120273
:100106004AB4020A9000011202634291429212021C
:100116004AB4030D900001120263FEF45291EE42BE
:1001260092EF6402704312024AFE700B90000112B5
:100136000263F452955296EEB4010B90000112023E
:10014600634295F4529612024AB4020A90000112D2
:1001560002634295429612024AB4030D90000112C0
:100166000263FEF45295EE4296EF64037043120268
:100176004AFE700B900001120263F452B152B2EEC5
:10018600B4010B90000112026342B1F452B21202A2
:100196004AB4020A90000112026342B142B212024C
:1001A6004AB4030D900001120263FEF452B1EE420E
:1001B600B2EF6404704312024AFE700B9000011203
:1001C6000263F452B352B4EEB4010B900001120272
:1001D6006342B3F452B412024AB4020A9000011206
:1001E600026342B342B412024AB4030D90000112F4
:1001F6000263FEF452B3EE42B4EF6405704312029A
:100206004AFF700B900001120263F452C952CAEF02
:10021600B4010B90000112026342C9F452CA1202E1
:100226004AB4020A90000112026342C942CA12028B
:100236004AB4030D900001120263FFF452C9EF4263
:04024600CA7F002249
:0603E8008B158A1689172F
:1003EE00EF6401600302057F751C01F51DF51EF516
:1003FE001FF520F521F5227F28784BE4F608DFFC67
:10040E007F287823E4F608DFFCAB15AA16A917128D
:10041E00024AD394C040037F012290000A12026365
:10042E00B40104D2BC8002C2BC12024AFFE5985449
:10043E003F4FF598EF64C06008EF6440600302051B
:10044E00039000021203827F007E607D547C0012B6
:10045E0002CC8F1B8E1A8D198C18E4FFFE7D01FCC9
:10046E00AB1BAA1AA919A818C312035E40037F0278
:10047E0022C3E4951BF51BE4951AF51A7401951920
:10048E00F519E49518F518AB15AA16A917900001E1
:10049E00120263FB6401702CC28E538EFE5389BF11
:1004AE005389CF438E40AF1BAE1AAD19AC187808E6
:1004BE0012036F8F8D851B8BC2AB5389BF538FFD7C
:1004CE00D28E8065EB64027029538EEF438E0153FA
:1004DE008EF7438E04AF1BAE1AAD19AC1878081206
:1004EE00036F8FD6851BD753AFFB538EF7438E10FA
:1004FE0080377F0222AB15AA16A91712024AFF7087
:10050E0013900008120263B40105438E20801A5323
:10051E008EDF8015EFB48011900008120263B401D3
:10052E0005438780800353877FAB15AA16A91790C2
:10053E000009120263B40104D2AC8002C2AC900076
:10054E0007120263B40104D29C8002C29C90000B7D
:10055E0012026354C0FFE5A2543F4FF5A290000C67
:10056E00120263B4010543971080035397EF7F0087
:03057E00227F03D6
:010581002257
:10006600744B251EF8A607051EE51EC394284003FB
:0D007600E4F51EE51F7005751F01D29922EB
:10061B0012024AFF600C120066740129F9E43AFADF
:03062B0080EE223C
:0300230002058251
:10058200C0E0C0D075D000C000C00730981DC2982E
:10059200E5227017E520C394284003752000AF20A0
:1005A200052074232FF8A699752105309921C29947
:1005B200E51D651E6016744B251DF8E6F599051DAF
:1005C200E51DC394284008751D008003751F00D0E7
:0805D20007D000D0D0D0E032C8
:0B064A00746573742E2E2E2E0D0A0016
:100601001205DA120026D2AF7BFF7A06794A12066A
:0A0611001BB2B07FF412062E80EE3B
:03000300020006F2
:0100060032C7
:03001300020007E1
:0100070032C6
:03005300020008A0
:0100080032C5
:03005B0002000997
:0100090032C4
:0300830002000A6E
:01000A0032C3
:03000B0002000EE2
:01000E0032BF
:03001B0002000FD1
:01000F0032BE
:0300630002001088
:0100100032BD
:10002600750840750902750D00750CC2750B0175D2
:100036000A00750F01E4F510751101F512F513F5B7
:0B00460014FB7A0079087F010203E838
:1005DA007509FF7508037B007A0079087F0112000C
:1005EA00867B007A0079087F031200867B007A00F6
:0705FA0079087F050200866D
:0300000002063EB7
:0C063E00787FE4F6D8FD75817202060199
:10024A00BB010689828A83E0225002E722BBFE02B2
:09025A00E32289828A83E49322E5
:10026300BB010CE58229F582E5833AF583E0225050
:1002730006E92582F8E622BBFE06E92582F8E2229A
:0D028300E58229F582E5833AF583E49322B4
:1002900075F008758200EF2FFFEE33FECD33CDCC25
:1002A00033CCC58233C5829BED9AEC99E5829840A8
:1002B0000CF582EE9BFEED9AFDEC99FC0FD5F0D685
:1002C000E4CEFBE4CDFAE4CCF9A88222B800C1B9AF
:1002D0000059BA002DEC8BF084CFCECDFCE5F0CBED
:1002E000F97818EF2FFFEE33FEED33FDEC33FCEB26
:1002F00033FB10D703994004EB99FB0FD8E5E4F9E1
:10030000FA227818EF2FFFEE33FEED33FDEC33FCCD
:10031000C933C910D7059BE99A4007EC9BFCE99AC1
:10032000F90FD8E0E4C9FAE4CCFB2275F010EF2F06
:10033000FFEE33FEED33FDCC33CCC833C810D70706
:100340009BEC9AE899400AED9BFDEC9AFCE899F841
:0E0350000FD5F0DAE4CDFBE4CCFAE4C8F922D4
:10035E00EB9FF5F0EA9E42F0E99D42F0E89C45F0F5
:01036E00226C
:10036F00E8600FECC313FCED13FDEE13FEEF13FF6C
:03037F00D8F12290
:10038200BB010DE58229F582E5833AF5830203BFBD
:100392005007E92582F80203B2BBFE07E92582F87D
:1003A2000203CBE58229F582E5833AF5830203D87D
:0D03B200E6FB08E6F908E6FA08E6CBF822BB
:0C03BF00E0F8A3E0F9A3E0FAA3E0FB22C1
:0D03CB00E2FB08E2F908E2FA08E2CBF822B2
:1003D800E493F8740193F9740293FA740393FB227B
:00000001FF
