:0F07F0007DA57C06ED1D70011C144C70F7DFF128
:0107FF0022D7
:1002CC00EFD3940540037F012212011CFED394034B
:1002DC0040037F0222EF7041EE700B90000112017F
:1002EC0035F45293529412011CB4010B900001127C
:1002FC0001354293F4529412011CFEB4020A900090
:10030C000112013542934294EEB4030D9000011298
:10031C000135FEF45293EE4294EF640170431201E6
:10032C001CFE700B900001120135F452915292EEAA
:10033C00B4010B9000011201354291F4529212015A
:10034C001CB4020A90000112013542914292120132
:10035C001CB4030D900001120135FEF45291EE42D3
:10036C0092EF6402704312011CFE700B900001129C
:10037C000135F452955296EEB4010B900001120126
:10038C00354295F4529612011CB4020A90000112E7
:10039C0001354295429612011CB4030D90000112D6
:1003AC000135FEF45295EE4296EF64037043120150
:1003BC001CFE700B900001120135F452B152B2EEDA
:1003CC00B4010B90000112013542B1F452B212018A
:1003DC001CB4020A90000112013542B142B2120162
:1003EC001CB4030D900001120135FEF452B1EE4223
:1003FC00B2EF6404704312011CFE700B90000112EA
:10040C000135F452B352B4EEB4010B900001120159
:10041C003542B3F452B412011CB4020A900001121A
:10042C00013542B342B412011CB4030D9000011209
:10043C000135FEF452B3EE42B4EF64057043120181
:10044C001CFF700B900001120135F452C952CAEF17
:10045C00B4010B90000112013542C9F452CA1201C9
:10046C001CB4020A90000112013542C942CA1201A1
:10047C001CB4030D900001120135FFF452C9EF4278
:04048C00CA7F002201
:060490008B3B8A3C893D14
:10049600EF64016003020627754201F543F544F552
:1004A60045F546F547F5487F287871E4F608DFFC00
:1004B6007F287849E4F608DFFCAB3BAA3CA93D124D
:1004C600011CD394C040037F012290000A1201351B
:1004D600B40104D2BC8002C2BC12011CFFE59854D0
:1004E6003F4FF598EF64C06008EF64406003020573
:1004F600AB9000021202667F007E607D547C001283
:1005060001B08F418E408D3F8C3EE4FFFE7D01FCA5
:10051600AB41AA40A93FA83EC312024240037F0254
:1005260022C3E49541F541E49540F5407401953FB9
:10053600F53FE4953EF53EAB3BAA3CA93D90000154
:10054600120135FB6401702CC28E538EFE5389BF97
:100556005389CF438E40AF41AE40AD3FAC3E7808A5
:100566001202538F8D85418BC2AB5389BF538FFDCA
:10057600D28E8065EB64027029538EEF438E015351
:100586008EF7438E04AF41AE40AD3FAC3E780812C5
:1005960002538FD68541D753AFFB538EF7438E1048
:1005A60080377F0222AB3BAA3CA93D12011CFF709B
:1005B60013900008120135B40105438E20801A53AA
:1005C6008EDF8015EFB48011900008120135B4015A
:1005D60005438780800353877FAB3BAA3CA93D90A8
:1005E6000009120135B40104D2AC8002C2AC9000FD
:1005F60007120135B40104D29C8002C29C90000B04
:1006060012013554C0FFE5A2543F4FF5A290000CED
:10061600120135B4010543971080035397EF7F000D
:03062600227F032D
:0106290022AE
:1007AE0074712544F8A6070544E544C39428400314
:0D07BE00E4F544E5457005754501D299222A
:1007CB0012011CFF600C1207AE740129F9E43AFA0E
:0307DB0080EE228B
:0300230002068A48
:10068A00C0E0C0D075D000C000C00730981DC29825
:10069A00E5487017E546C394284003754600AF46FF
:1006AA00054674492FF8A699754705309921C299CC
:1006BA00E5436544601674712543F8E6F5990543E8
:1006CA00E543C3942840087543008003754500D06C
:0806DA0007D000D0D0D0E032BF
:0E080000E4F5C7F5C5F5C675C3FF75C4FF2244
:1006E200AD07AC06C2AF75C78175C5018CC3AF0536
:1006F2008FC475C65A75C6A500E5C21201620DBD4A
:1007020000010C740129F9E43AFAE5341534700257
:0D071200153314453370D5120800D2AF2204
:10000300AD07AC06C2AF8CC3AF058FC475C781758E
:0F001300C50375C65A75C6A500120800D2AF22E4
:10071F00AD07AC06C2AF75C78175C5028CC3AF05F7
:10072F008FC412011CF5C275C65A75C6A5000DBD42
:10073F0000010C740129F9E43AFAE534153470021A
:0D074F00153314453370D5120800D2AF22C7
:1007DE00454550524F4D2168656C6C6F2121210D9E
:0207EE000A00FF
:10062A0078087C007D007BFF7A0779DE7E007F12E6
:10063A001200F612078712075CD2AF7B007A0079A4
:10064A00081207CBE4FFFE1200037B007A00790848
:10065A00753300753414E4FFFE12071F7B007A001D
:10066A00791A753300753414E4FFFE1206E27B0032
:10067A007A00791A1207CBB2B07FF41207F080EE33
:10075C00752E40752F027533007532C275310175D7
:10076C003000753501E4F536753701F538F539F596
:0B077C003AFB7A00792E7F0102049006
:10078700752FFF752E037B007A00792E7F011202E9
:10079700CC7B007A00792E7F031202CC7B007A0093
:0707A700792E7F050202CC50
:0300000002080EE5
:0C080E00787FE4F6D8FD75819802062A78
:10002600E709F608DFFA8046E709F208DFFA803EBC
:1000360088828C83E709F0A3DFFA8032E309F608A9
:10004600DFFA8078E309F208DFFA807088828C8311
:10005600E309F0A3DFFA806489828A83E0A3F608C5
:10006600DFFA805889828A83E0A3F208DFFA804C9F
:1000760080D280FA80C680D4806980F28033801076
:1000860080A680EA809A80A880DA80E280CA8033DF
:1000960089828A83ECFAE493A3C8C582C8CCC58357
:1000A600CCF0A3C8C582C8CCC583CCDFE9DEE78027
:1000B6000D89828A83E493A3F608DFF9ECFAA9F0A6
:1000C600EDFB2289828A83ECFAE0A3C8C582C8CCFC
:1000D600C583CCF0A3C8C582C8CCC583CCDFEADE15
:1000E600E880DB89828A83E493A3F208DFF980CC77
:1000F60088F0EF60010E4E60C388F0ED2402B40470
:100106000050B9F582EB2402B4040050AF23234516
:06011600822390007673C5
:10011C00BB010689828A83E0225002E722BBFE02E1
:09012C00E32289828A83E4932214
:10013500BB010CE58229F582E5833AF583E022507F
:1001450006E92582F8E622BBFE06E92582F8E222C9
:0D015500E58229F582E5833AF583E49322E3
:10016200BB010689828A83F0225002F722BBFE017C
:02017200F32276
:1001740075F008758200EF2FFFEE33FECD33CDCC42
:1001840033CCC58233C5829BED9AEC99E5829840C5
:100194000CF582EE9BFEED9AFDEC99FC0FD5F0D6A2
:1001A400E4CEFBE4CDFAE4CCF9A88222B800C1B9CC
:1001B4000059BA002DEC8BF084CFCECDFCE5F0CB0A
:1001C400F97818EF2FFFEE33FEED33FDEC33FCEB43
:1001D40033FB10D703994004EB99FB0FD8E5E4F9FE
:1001E400FA227818EF2FFFEE33FEED33FDEC33FCEB
:1001F400C933C910D7059BE99A4007EC9BFCE99ADF
:10020400F90FD8E0E4C9FAE4CCFB2275F010EF2F23
:10021400FFEE33FEED33FDCC33CCC833C810D70723
:100224009BEC9AE899400AED9BFDEC9AFCE899F85E
:0E0234000FD5F0DAE4CDFBE4CCFAE4C8F922F1
:10024200EB9FF5F0EA9E42F0E99D42F0E89C45F012
:010252002289
:10025300E8600FECC313FCED13FDEE13FEEF13FF89
:03026300D8F122AD
:10026600BB010DE58229F582E5833AF5830202A3F7
:100276005007E92582F8020296BBFE07E92582F8B7
:100286000202AFE58229F582E5833AF5830202BCD4
:0D029600E6FB08E6F908E6FA08E6CBF822D8
:0C02A300E0F8A3E0F9A3E0FAA3E0FB22DE
:0D02AF00E2FB08E2F908E2FA08E2CBF822CF
:1002BC00E493F8740193F9740293FA740393FB2298
:00000001FF
